{
  "_format": "hh-sol-artifact-1",
  "contractName": "Storage",
  "sourceName": "contracts/Storage.sol",
  "abi": [
    {
      "inputs": [],
      "name": "candidate1",
      "outputs": [
        {
          "internalType": "int256",
          "name": "",
          "type": "int256"
        }
      ],
      "stateMutability": "view",
      "type": "function"
    },
    {
      "inputs": [],
      "name": "candidate2",
      "outputs": [
        {
          "internalType": "int256",
          "name": "",
          "type": "int256"
        }
      ],
      "stateMutability": "view",
      "type": "function"
    },
    {
      "inputs": [],
      "name": "getResults",
      "outputs": [
        {
          "internalType": "int256[2]",
          "name": "",
          "type": "int256[2]"
        }
      ],
      "stateMutability": "view",
      "type": "function"
    },
    {
      "inputs": [
        {
          "internalType": "address",
          "name": "voterAddress",
          "type": "address"
        }
      ],
      "name": "vote1",
      "outputs": [],
      "stateMutability": "nonpayable",
      "type": "function"
    },
    {
      "inputs": [
        {
          "internalType": "address",
          "name": "voterAddress",
          "type": "address"
        }
      ],
      "name": "vote2",
      "outputs": [],
      "stateMutability": "nonpayable",
      "type": "function"
    },
    {
      "inputs": [
        {
          "internalType": "address",
          "name": "",
          "type": "address"
        }
      ],
      "name": "voters",
      "outputs": [
        {
          "internalType": "bool",
          "name": "",
          "type": "bool"
        }
      ],
      "stateMutability": "view",
      "type": "function"
    }
  ],
  "bytecode": "0x608060405260008055600060015534801561001957600080fd5b50610597806100296000396000f3fe608060405234801561001057600080fd5b50600436106100625760003560e01c806301243fce146100675780634717f97c1461008557806353719d0f146100a35780635b57014c146100bf5780638ab77b59146100dd578063a3ec138d146100f9575b600080fd5b61006f610129565b60405161007c9190610442565b60405180910390f35b61008d61012f565b60405161009a919061040c565b60405180910390f35b6100bd60048036038101906100b89190610347565b610155565b005b6100c761021f565b6040516100d49190610442565b60405180910390f35b6100f760048036038101906100f29190610347565b610225565b005b610113600480360381019061010e9190610347565b6102f0565b6040516101209190610427565b60405180910390f35b60005481565b610137610310565b60405180604001604052806000548152602001600154815250905090565b6000600260008373ffffffffffffffffffffffffffffffffffffffff1673ffffffffffffffffffffffffffffffffffffffff16815260200190815260200160002060009054906101000a900460ff1690508061021b576000808154809291906101bd906104d2565b91905055506001600260008473ffffffffffffffffffffffffffffffffffffffff1673ffffffffffffffffffffffffffffffffffffffff16815260200190815260200160002060006101000a81548160ff0219169083151502179055505b5050565b60015481565b6000600260008373ffffffffffffffffffffffffffffffffffffffff1673ffffffffffffffffffffffffffffffffffffffff16815260200190815260200160002060009054906101000a900460ff169050806102ec576001600081548092919061028e906104d2565b91905055506001600260008473ffffffffffffffffffffffffffffffffffffffff1673ffffffffffffffffffffffffffffffffffffffff16815260200190815260200160002060006101000a81548160ff0219169083151502179055505b5050565b60026020528060005260406000206000915054906101000a900460ff1681565b6040518060400160405280600290602082028036833780820191505090505090565b6000813590506103418161054a565b92915050565b60006020828403121561035957600080fd5b600061036784828501610332565b91505092915050565b600061037c83836103ee565b60208301905092915050565b61039181610467565b61039b818461047f565b92506103a68261045d565b8060005b838110156103d75781516103be8782610370565b96506103c983610472565b9250506001810190506103aa565b505050505050565b6103e88161049c565b82525050565b6103f7816104a8565b82525050565b610406816104a8565b82525050565b60006040820190506104216000830184610388565b92915050565b600060208201905061043c60008301846103df565b92915050565b600060208201905061045760008301846103fd565b92915050565b6000819050919050565b600060029050919050565b6000602082019050919050565b600081905092915050565b6000610495826104b2565b9050919050565b60008115159050919050565b6000819050919050565b600073ffffffffffffffffffffffffffffffffffffffff82169050919050565b60006104dd826104a8565b91507f7fffffffffffffffffffffffffffffffffffffffffffffffffffffffffffffff8214156105105761050f61051b565b5b600182019050919050565b7f4e487b7100000000000000000000000000000000000000000000000000000000600052601160045260246000fd5b6105538161048a565b811461055e57600080fd5b5056fea264697066735822122085e14d7f5d6155b6a8860132fcbf3bddadd06cb7a570b1b156c30d20a2b8771664736f6c63430008040033",
  "linkReferences": {},
  "deployedLinkReferences": {}
}